:100000000C942A000C9498000C9498000C9498007E
:100010000C9498000C9498000C9498000C94980000
:100020000C9498000C9498000C9498000C949800F0
:100030000C9498000C9498000C9498000C949800E0
:100040000C9498000C9498000C9498000C949800D0
:100050000C94980011241FBECFE5D8E0DEBFCDBFC1
:0C0060000E9436000C948D00F894FFCF35
:10006C008AB38E7F8ABB81B3806181BB81B380628E
:10007C0081BB81B3806481BB81B3806881BBC8992B
:10008C00FECF82B3806282BB2FEF89E698E12150CC
:10009C0080409040E1F700C0000082B38F7D82BBAE
:1000AC0082B3806482BB2FEF89E698E121508040B7
:1000BC009040E1F700C0000082B38F7B82BB82B31B
:1000CC00806882BB2FEF89E698E1215080409040F8
:1000DC00E1F700C0000082B38F7782BB82B38061EE
:1000EC0082BB2FEF89E698E1215080409040E1F7E8
:1000FC0000C0000082B38F7E82BB2FEF89E698E1AF
:0E010C00215080409040E1F700C00000B8CFC5
:10011A00EC010E949D000E949C00CE010E949E005C
:06012A00CE010E949A00C4
:040130000C9400002B
:040134000E943400F1
:02013800089528
:02013A00089526
:02013C00089524
:00000001FF
