:020000040800F2
:1000000000280020E1020008810200088D0200089B
:1000100093020008990200089F02000800000000F7
:10002000000000000000000000000000A502000821
:10003000B102000800000000BD020008C90200086B
:1000400029030008290300082903000829030008E0
:100050002903000829030008FD01000829030008FE
:1000600029030008290300082903000829030008C0
:1000700029030008290300082903000829030008B0
:1000800029030008290300082903000829030008A0
:100090002903000829030008290300082903000890
:1000A0002903000829030008290300082903000880
:1000B00029030008290300080000000029030008A4
:1000C00029030008000000000000000029030008C8
:1000D00000000000290300082903000800000000B8
:1000E0002903000829030008290300080000000074
:1000F0000000000000000000000000000000000000
:0C01000000000000000000005FF808F1A3
:10010C0010B5054C237833B9044B13B10448AFF345
:10011C0000800123237010BD0800002000000000A7
:10012C009803000808B5034B1BB103490348AFF310
:10013C00008008BD000000000C000020980300089F
:10014C0080B400AF074B1B68064A43F004031360EE
:10015C00044B1B68034A43F00103136000BFBD4608
:10016C0080BC70471810024080B400AF0A4B1B686B
:10017C00094A43F040031360084B1B68074A43F0DD
:10018C0001031360064B1B68054A43F0010313601F
:10019C0000BFBD4680BC704700E100E00804014090
:1001AC000004014080B400AF0A4B1B68094A23F4D9
:1001BC0070031360074B1B68064A43F4001313606B
:1001CC00054B1B68044B00221A6000BFBD4680BC67
:1001DC00704700BF040801400810024080B500AF12
:1001EC00FFF7AEFFFFF7DEFFFFF7BEFFFEE70000F5
:1001FC0080B483B000AF00237B6000233B600023FE
:10020C003B6024E0194B1A6813886FF34D3313804D
:10021C0000237B6002E07B6801337B607B6848F2E3
:10022C00E7029342F7DD114B1A68138843F400532D
:10023C00138000237B6002E07B6801337B607B686A
:10024C0048F2E7029342F7DD3B6801333B603B68C1
:10025C00132BD7DD064B1B68054A43F001031360D3
:10026C0000BF0C37BD4680BC704700BF00000020AB
:10027C001404014080B400AF00BFBD4680BC704781
:10028C0080B400AFFEE780B400AFFEE780B400AFEF
:10029C00FEE780B400AFFEE780B400AF00BFBD4600
:1002AC0080BC704780B400AF00BFBD4680BC7047B7
:1002BC0080B400AF00BFBD4680BC704780B500AFB6
:1002CC0000F02EF800BF80BD80B400AF00BFBD466B
:1002DC0080BC70470C480D490D4A002302E0D458ED
:1002EC00C4500433C4188C42F9D30A4A0A4C002374
:1002FC0001E013600432A242FBD3FFF7E5FF00F0EC
:10030C0021F8FFF76BFF7047000000200800002069
:10031C00B80300080800002028000020FEE70000B9
:10032C0080B400AF054B1B781A46054B1B68134471
:10033C00034A136000BFBD4680BC70470400002018
:10034C002400002070B500250C4E0D4CA41BA410ED
:10035C00A54209D100F01AF800250A4E0A4CA41B3C
:10036C00A410A54205D170BD56F82530984701352B
:10037C00EEE756F8253098470135F2E7B003000850
:10038C00B0030008B0030008B4030008F8B500BFC0
:10039C00F8BC08BC9E467047F8B500BFF8BC08BC5A
:0403AC009E467047B2
:0403B000310100080F
:0403B4000D0100082F
:0803B8000C08014001000000E7
:04000005080002E10C
:00000001FF
