:020000040800F2
:1000000000280020E502000885020008910200088F
:10001000970200089D020008A302000800000000EB
:10002000000000000000000000000000A90200081D
:10003000B502000800000000C1020008CD0200085F
:100040002D0300082D0300082D0300082D030008D0
:100050002D0300082D0300082D0300082D030008C0
:100060002D0300082D0300082D0300082D030008B0
:100070002D0300082D0300082D0300082D030008A0
:100080002D0300082D0300082D0300082D03000890
:100090002D0300082D0300082D0300082D03000880
:1000A0002D0300082D0300082D0300082D03000870
:1000B0002D0300082D030008000000002D03000898
:1000C0002D03000800000000000000002D030008C0
:1000D000000000002D0300082D03000800000000B0
:1000E0002D0300082D0300082D0300080000000068
:1000F0000000000000000000000000000000000000
:0C01000000000000000000005FF808F1A3
:10010C0010B5054C237833B9044B13B10448AFF345
:10011C0000800123237010BD0400002000000000AB
:10012C009C03000808B5034B1BB103490348AFF30C
:10013C00008008BD00000000080000209C0300089F
:10014C0080B400AF074B1B68064A43F004031360EE
:10015C00044B1B68034A43F00803136000BFBD4601
:10016C0080BC70471810024080B400AF194B1B685C
:10017C00184A23F030031360164B1B68154A43F0E2
:10018C0040031360144B1B68134A23F44013136091
:10019C00114B1B68104A43F4800313600F4B1B6810
:1001AC000E4A43F0100313600C4B1B680B4A23F0F0
:1001BC00C00313600A4B1B68094A43F48013136095
:1001CC00074B1B68064A23F44003136000BFBD466F
:1001DC0080BC70470008014004080140000C01403D
:1001EC00040C014080B485B000AF78600023FB6044
:1001FC000CE00023BB6002E0BB680133BB60BB6852
:10020C00B3F5007FF8DBFB680133FB60FB68002B68
:10021C00EFDD00BF1437BD4680BC704780B500AF22
:10022C00FFF78EFFFFF7A0FF114B1B6803F00203D3
:10023C00002B0CD10F4B1B680E4A83F0020313608A
:10024C0000BF0B4B1B6803F00203002BF9D0084BCB
:10025C001B685B0B03F00103012B05D1054B1B68DD
:10026C00044A83F4005313600120FFF7BBFFDBE764
:10027C00080801400C0C014080B400AF00BFBD4623
:10028C0080BC704780B400AFFEE780B400AFFEE7DF
:10029C0080B400AFFEE780B400AFFEE780B400AFDF
:1002AC0000BFBD4680BC704780B400AF00BFBD46E8
:1002BC0080BC704780B400AF00BFBD4680BC7047A7
:1002CC0080B500AF00F02EF800BF80BD80B400AF49
:1002DC0000BFBD4680BC70470C480D490D4A002339
:1002EC0002E0D458C4500433C4188C42F9D30A4ADF
:1002FC000A4C002301E013600432A242FBD3FFF747
:10030C00E5FF00F021F8FFF789FF7047000000209F
:10031C0004000020BC03000804000020240000207E
:10032C00FEE7000080B400AF054B1B781A46054B66
:10033C001B681344034A136000BFBD4680BC704762
:10034C00000000202000002070B500250C4E0D4C44
:10035C00A41BA410A54209D100F01AF800250A4EDE
:10036C000A4CA41BA410A54205D170BD56F825302B
:10037C0098470135EEE756F8253098470135F2E7F6
:10038C00B4030008B4030008B4030008B803000861
:10039C00F8B500BFF8BC08BC9E467047F8B500BF66
:0803AC00F8BC08BC9E46704736
:0403B400310100080B
:0403B8000D0100082B
:0403BC00010000003C
:04000005080002E508
:00000001FF
